:020000040800F2
:10000000780A002045010008290A0008B9090008FB
:10001000270A00083B0800084D14000800000000F3
:10002000000000000000000000000000AD0F00080C
:100030003D080008000000004D0C0008BD1000083D
:100040005F0100085F0100085F0100085F01000810
:100050005F0100085F0100085F0100085F01000800
:100060005F0100085F0100085F0100085F010008F0
:100070005F0100085F0100085F0100085F010008E0
:100080005F0100085F0100085F0100085F010008D0
:100090005F0100085F0100085F0100085F010008C0
:1000A0005F0100085F0100085F0100085F010008B0
:1000B0005F0100085F0100085F0100085F010008A0
:1000C0005F0100085F0100085F0100085F01000890
:1000D0005F0100085F0100085F0100085F01000880
:1000E0005F0100085F0100085F0100085F01000870
:1000F0005F0100085F0100085F0100085F01000860
:100100005F0100085F0100085F0100085F0100084F
:100110005F0100085F0100085F0100085F0100083F
:100120005F0100085F0100085F0100085F0100082F
:10013000DFF80CD000F044FB0048004751290008CC
:10014000780A00200648804706480047FEE7FEE799
:10015000FEE7FEE7FEE7FEE7FEE7FEE7FEE7FEE777
:10016000CD1000083101000830B5044600200346D8
:1001700000E05B1C934203D2E05CCD5C401BF8D0F6
:1001800030BD30B480EA010202F0004530F0004298
:1001900021F0004013D090B1C30DD40DC2F316016D
:1001A000C0F31600E41A41F4000140F400027D346B
:1001B000914201D3641C00E04900002C02DA30BCFB
:1001C000002070474FF400000023914201D3891AA8
:1001D000034340084FEA4101F7D151B1914202D1A6
:1001E0004FF0004105E002D24FF0010101E06FF055
:1001F000010103EBC450284430BC00F035BA2DE9AE
:10020000FE4F804681EA0300C00F0C46009021F0AB
:10021000004123F00045B8EB0200A94105D2404659
:10022000214690461C460B46024623F000401043F0
:1002300047D0270DC7F30A00C3F30A510290401AB2
:10024000019040286BDAC3F3130040F4801B009840
:10025000924620B10023D2EB030A63EB0B0B01980B
:100260005946C0F14002504600F0CDF906460D4611
:1002700050465946019A00F0E5F910EB080061413B
:10028000002487EA115284EAE7731A4340D0009AA7
:1002900062B3019A012A4FEA075215DC001B61EB99
:1002A00002014FF0004202EA0752CDE90042001C71
:1002B00041F5801132462B4600F01CFA03B0BDE830
:1002C000F08F40462146F9E7001B61EB0201001C5C
:1002D00041F5801300185B412018A2F5001747EB89
:1002E000030140EAD570B6196D4111E06D084FEA7F
:1002F000360645EAC0754FEA0752001B61EB020162
:10030000001C41F5801149084FEA300000195141A5
:1003100032462B4603B0BDE8F04F00F0DCB9009840
:10032000012240000023D0EB020263EBE07300984F
:1003300021464FEAE074B8EB000061EB0401E9E705
:1003400083F000435BE781F0004158E72DE9FE4F61
:1003500081EA030404F0004421F0004100944FF0CE
:10036000000B23F0004350EA01045ED052EA03047C
:100370005BD0C3F30A54C1F30A552C44A4F2F334FE
:100380000194A0FB0254C1F3130141F48011C3F3A3
:10039000130343F4801301FB024400FB034E840A61
:1003A000970A44EA815447EA8357A4FB07680295F9
:1003B0008D0A05FB07854FEA932C04FB0C54270597
:1003C000029D4FEA065847EA1637B5EB08056EEB73
:1003D000070C870E920E47EA811742EA8312A7FBA9
:1003E0000201B6EB0B0164EB00042B0D43EA0C3366
:1003F0005E1844EB1C50DA465146E7FB0201C5F398
:1004000013044FEA0B3343EA14534FEA0432019CBE
:1004100043EA0603A4F10C040294009CCDE900B465
:1004200000F068F903B0BDE8F08F00200146F9E75D
:100430002DE9F04D81EA030404F0004B21F0004562
:1004400014464FF0000A23F0004150EA050220D084
:1004500054EA01021DD0C5F30A570246C5F313033F
:10046000C1F31300C1F30A5640F4801543F480131E
:10047000A7EB0608101BD64608F2FD3873EB050003
:1004800002D308F1010801E092185B41B8F1000FB6
:1004900003DA00200146BDE8F08D00204FF4801102
:1004A000064684460EE0171B73EB050705D3121BA7
:1004B00063EB050306434CEA010C49084FEA3000A0
:1004C00092185B4150EA0107EDD152EA030012D0C5
:1004D00082EA040083EA0501084305D0101BAB4102
:1004E00006D20122002306E000224FF0004302E082
:1004F0006FF0010253101AEB06004CEB085110EBA1
:100500000A0041EB0B01BDE8F04D00F0E4B8C10F6B
:1005100080EAE0700844CA079623002100F0ADB8D5
:1005200000F0004230F000400AD0C10D01F56071CA
:10053000C0F3160042EA0151C20840071143704758
:10054000002001467047000030B5041E71F1000420
:1005500004DB4FF00044404264EB0101141E73F1D0
:10056000000405DB1C464FF00043524263EB0403DA
:10057000994208BF904230BD30B50B46014600207D
:100580002022012409E021FA02F59D4205D303FA55
:1005900002F5491B04FA02F52844151EA2F10102D6
:1005A000F1DC30BD2DE9F05F0546002092469B4608
:1005B00088460646814640241BE028464146474679
:1005C000224600F02FF853465A46C01A914110D3E4
:1005D00011461846224600F016F82D1A67EB01085E
:1005E0004F4622460120002100F00DF817EB0009CC
:1005F0004E41201EA4F10104DFDC484631462A4664
:100600004346BDE8F09F202A04DB203A00FA02F1BD
:10061000002070479140C2F1200320FA03F31943F0
:1006200090407047202A04DB203A21FA02F0002192
:10063000704721FA02F3D040C2F1200291400843F2
:1006400019467047202A06DBCB17203A41FA02F000
:1006500043EAE07306E041FA02F3D040C2F120021F
:1006600091400843194670470029A8BF7047401CB5
:10067000490008BF20F00100704710B4B0FA80FCB8
:1006800000FA0CF050EA010404BF10BC704749B1F5
:10069000CCF1200421FA04F411FA0CF118BF012165
:1006A00021430843A3EB0C01CB1D4FEA00614FEA45
:1006B000102042BF002010BC704700EBC350104414
:1006C0000029A4BF10BC7047401C490008BF20F09F
:1006D000010010BC704710B5141E73F1000408DA55
:1006E000401C41F1000192185B411A4301D120F0F6
:1006F000010010BD2DE9F04D92469B4611B1B1FAB3
:1007000081F202E0B0FA80F220329046FFF77BFFE0
:1007100004460F4640EA0A0041EA0B0153465A4696
:10072000084313D0114653EA010019D0C8F1400222
:100730005046FFF777FF05460E465046594642465B
:10074000FFF761FF084305D0012004E02046394649
:10075000BDE8F08D0020054346EAE0762C433743A0
:100760000A986305E40AA0EB08000022FD0A44EAA7
:1007700047540A3002D500200146E9E70105101967
:100780006941DDE9084500196941BDE8F04DA2E77E
:10079000C1F30A52C1F3130140F2FF3341F4801157
:1007A0009A4202DA00200146704740F233439A42EF
:1007B000A2F2334202DC5242FFF734BFFFF723BFFD
:1007C000064C074D06E0E06840F0010394E807009E
:1007D00098471034AC42F6D3FFF7AEFC88370008D8
:1007E000A837000870B58C1810F8015B15F00703E6
:1007F00001D110F8013B2A1106D110F8012B03E0BA
:1008000010F8016B01F8016B5B1EF9D12B0705D4C1
:100810000023521E0DD401F8013BFAE710F8013B0A
:10082000CB1A921C03E013F8015B01F8015B521E26
:10083000F9D5A142D8D3002070BDFEE77047000073
:1008400038B501217D2000F01BFA4FF6FF70ADF89E
:1008500000000020124C8DF803006946204600F08D
:1008600029F869460F4800F025F869460E4800F05F
:1008700021F869460D4800F01DF869460C4800F063
:1008800019F80E20ADF8000010208DF803000320A9
:100890008DF802006946204600F00CF8002038BDB3
:1008A00000080140000C014000100140001401400C
:1008B00000180140F0B5CA78002502F00F03D206F7
:1008C00001D58A7813430A784FF00F0E12F0FF0F0C
:1008D0004FF001021CD004680F8802FA05F6374079
:1008E000B74211D14FEA850C0EFA0CF724EA07073C
:1008F00003FA0CF43C43CF78282F02D0482F02D0C3
:1009000002E0466100E006616D1C082DE4D304603E
:100910000C88FF2C1ED944685FF0000606F108071A
:1009200002FA07F50F882F40AF420FD14FEA860C2D
:100930000EFA0CF7BC4303FA0CF73C43CF78282F90
:1009400000D14561CF78482F00D10561761C082E73
:10095000E4D34460F0BD0000F0B5144C002801DA87
:10096000E36900E06368420D120185B2C0F30157EC
:100970009540C0F30346032F05D0C2020AD50322D7
:10098000B240934307E023F07062636823F0706322
:10099000636002E0AB4343F0706201B12A43002878
:1009A00001DAE261F0BD6260F0BD000000000140CC
:1009B0004161704701617047FEE770B5022404F1A0
:1009C000B000C0B2002100F003F90021084600F099
:1009D000FFF80021102000F0FBF800250121002085
:1009E00000F0F6F86D1CEDB2872DF7D3641CE4B26D
:1009F000082CE4D370BD10B5032001F093FF6420F0
:100A000001F0CCFA032001F077FF642001F0C6FA70
:100A1000032001F087FF642001F0C0FABDE8104018
:100A2000032001F069BFFEE770470907090E00289F
:100A300006DA00F00F0000F1E02080F8141D704786
:100A400000F1E02080F80014704770B5002404F134
:100A5000B000C0B2002100F0BBF80021084600F051
:100A6000B7F80021102000F0B3F800250121002084
:100A700000F0AEF86D1CEDB2872DF7D3641CE4B224
:100A8000082CE4D370BD000038B50121082000F027
:100A9000F7F84FF47440ADF8000010208DF8030013
:100AA0000320184C8DF8020069462046FFF702FF2C
:100AB0004FF43C412046FFF77DFF4FF48045294627
:100AC0002046FFF777FF642001F068FA29462046A8
:100AD000FFF76EFFC82001F061FA29462046FFF7B4
:100AE00069FF094D00240021285D00F071F8641CA5
:100AF000E4B21B2CF7D3FFF7A8FF0021AF2000F0D2
:100B000067F838BD000C01401403002010B50446FE
:100B1000B031C8B2002100F05BF8102040EA141098
:100B2000002100F055F804F00F00BDE8104040F03F
:100B30000100002100F04CB82DE9F041203A0024DA
:100B40000D46D7B27F2802D900208D1CEDB2801C43
:100B5000C0B280462946FFF7D9FF0F4E04EB0710BD
:100B60000121305C00F034F8641CE4B2082CF5D3A9
:100B70006D1CE9B24046FFF7C9FF002404EB0710E3
:100B800030440121007A00F023F8641CE4B2082C00
:100B9000F4D3BDE8F0810000D42F00082DE9F04126
:100BA00017460E46044600250CE031462046FFF766
:100BB000C3FF0834E4B2782C02D90024B61CF6B284
:100BC0006D1CEDB27A5D002AEFD1BDE8F081000026
:100BD0002DE9F0471C4D06464FF4806A0029514626
:100BE000284602D0FFF7E6FE01E0FFF7E1FE4FF4F2
:100BF000805841462846FFF7DBFE00244FF40049A9
:100C00004FF4005739462846FFF7D2FE30064946D2
:100C1000284602D5FFF7CEFE01E0FFF7C9FE3946B0
:100C20002846FFF7C7FE7006641C060EE4B2082CC7
:100C3000E8D341462846FFF7BDFE51462846BDE8A9
:100C4000F047FFF7B7BE0000000C014070470000FE
:100C5000044A0029D16901D0014300E08143D161F8
:100C60007047000000100240044A0029116901D0B9
:100C7000014300E081431161704700000010024011
:100C8000044A0029916901D0014300E08143916148
:100C90007047000000100240044A0029D16801D0CA
:100CA000014300E08143D160704700000010024022
:100CB00030B5224A5168224B11F00C0103D00429AF
:100CC00003D0082903D0036016E01E4913E05168E1
:100CD000536801F470114FF0020413F4803F04EBE9
:100CE000914104D053689B0303D5154B02E0164B8A
:100CF00000E0144B5943016051680F2303EA1111BE
:100D0000124B5C5C0168E14041605468072505EACC
:100D100014241C5D21FA04F48460546805EAD42488
:100D20001B5DD940C1605268032303EA9232074B2E
:100D30001B1F9A5CB1FBF2F1016130BD0010024053
:100D400000127A000024F40000093D00E1000020B8
:100D5000034A118821F038010143118070470000D7
:100D6000003001400029018802D041F0400101E03B
:100D700021F0400101807047F0B5294E87B0304620
:100D800000F052F80021ADF800104FF48270ADF879
:100D90000200ADF808107015ADF80A001024ADF887
:100DA0000410ADF80C400720ADF80610ADF80E1099
:100DB000ADF810006946304600F067F8A020ADF8A5
:100DC000140018208DF81700164F03258DF81650C3
:100DD00005A93846FFF76EFD4020ADF81400482005
:100DE0008DF8170005A93846FFF764FDADF81440EB
:100DF0008DF817408DF8165005A93846FFF75AFDB3
:100E00000021304600F05DF801213046FFF7AAFFCF
:100E100010213846FFF7CEFD07B00020F0BD0000DE
:100E20000030014000080140114910B588420AD144
:100E3000841401212046FFF72FFF2046BDE8104013
:100E40000021FFF729BF0B49884202D10121041478
:100E500004E0094988420AD10121C4132046FFF762
:100E600003FF2046BDE810400021FFF7FDBE10BD86
:100E70000030014000380040003C004002460020A5
:100E800012890A4200D00120704730B502884C8890
:100E900002F441530A88CD8822438C882C43224394
:100EA0000C8922434C8922438C892243CC892243DA
:100EB0001A430280828B22F400628283098A0182B3
:100EC00030BD0029818802D041F0040101E021F009
:100ED0000401818070470000F8B50E46044625499C
:100EE0002448083150F8240051F82410084340F0F9
:100EF00001000121FFF7C4FE1E4808389CB350F8DA
:100F000024000121FFF7A4FE18208DF803001948E2
:100F10006946183830F81400ADF8000003208DF849
:100F20000200154850F82400FFF7C4FC04208DF897
:100F3000030010486946143830F81400ADF800007A
:100F40000D48083050F82400FFF7B4FC0A4D314634
:100F5000083D55F8240000F01FFA55F8240001213F
:100F600000F009FAF8BDFFE700680121FFF788FEED
:100F7000CAE70000442F0008100100200349044A7A
:100F800031F8101052F8200041617047342F0008EA
:100F9000200100200349044A31F8101052F82000C3
:100FA00001617047342F00082001002070470000C5
:100FB0000020034902460A54401C0228FBDB70470C
:100FC000090000200CB5002126480191009102681B
:100FD00042F4803202604FF4A063026802F40032EF
:100FE0000092019A521C0192009A12B9019A9A42F7
:100FF000F3D10268920333D5012100911A490A689E
:1010000042F010020A600A6822F003020A600A68CD
:1010100042F002020A6041684160416841604168F3
:1010200041F480614160416821F47C114160416874
:1010300041F4F8114160016841F08071016001687C
:101040008901FCD5416821F003014160416841F00C
:10105000020141604168C1F381010229FAD10CBD4E
:1010600000910CBD00100240002002400148407871
:10107000704700000900002070B50F484FF47A71E6
:101080000068B0FBF1F0B0F1807F14D220F07F4017
:101090004FF0E024401E606165170F212846FFF7DE
:1010A000C4FC0020A0610720206105212846FFF72D
:1010B000BCFC002070BDFEE7F4000020024801687F
:1010C000491C016070470000000000200F4810B567
:1010D000016841F00101016041680D4A1140416021
:1010E00001680C4A11400160016821F4802101600F
:1010F000416821F4FE0141604FF41F018160FFF758
:1011000061FF05494FF00060086010BD001002400B
:101110000000FFF8FFFFF6FE08ED00E02DE9FC5FA0
:10112000DFF838B200268E4F4FF00F0AB146ABF110
:101130004208962001F073FA40F68C2001F086FAFE
:1011400098F800108BF8021044468BF803A0002298
:1011500082490C2001F04BFB00210C2001F058FBD0
:10116000022001F0A5FA002001F0D0F900210F20A3
:1011700001F083F938426060F8D002217948FFF726
:1011800019FCA088A04640047DD54FF4814200217F
:101190000F2001F0FEFA0021102001F06EF900F09E
:1011A0007F01182903D800226F4801F09AF96E4890
:1011B000C1780F2968D1694980F8039080F80290BE
:1011C0000A220C31FEF7D0FF00287DD100252C46E5
:1011D000684601F095F904206A46240244EA156441
:1011E0002B02155C1D43401EF7D5C8E904540025A9
:1011F0002C46104601F07EF904206946240244EA98
:1012000015642A020D5C1543401EF7D54FF02F6080
:10121000C8E90654281844F10001040A44EA0164AC
:10122000204601F09BF924F00100010E0202C8E9FA
:1012300008214A48D8E904234C46253001F03AFBFE
:101240004648D8E90623293001F034FB4348D8E961
:1012500008232D3001F02EFB404898F800101B3079
:101260000022817080F803A00146182001F0BFFA27
:101270000021182001F0CCFA032001F019FA4546AC
:1012800000210F2001E057E060E001F0F6F838425D
:101290006860F5D0A88840044ED54FF48142002103
:1012A0000F2001F076FA0021102001F0E6F800F09E
:1012B0007F01182903D800222B4801F012F92A4D8A
:1012C000E8780F2842D100E031E02449EC70A146D3
:1012D000AC700A220F392846FEF746FF38BBA87AC1
:1012E0004FF47A714843E97A01EB810100EB410147
:1012F000287B603505F10C0455F82020114445F891
:10130000201054F82010491C44F820105FF0000011
:1013100054F8201005290BDB00F050FE0020494650
:1013200044F8201045F82010401C0328F8DB08E0A2
:10133000401C0328ECDB04E00C4A00210F2001F0E4
:1013400028FA98F80010491C88F80010761CF6B2AC
:10135000032EFFF4EEAEBDE8FC9F00004A00002023
:1013600000D0272400080140C0030020009027245B
:10137000C943018070470029818902D041F400519E
:1013800001E021F40051818170470246002012885B
:101390000A4200D00120704730B50446008A85B06B
:1013A0000D464CF6FF710840E98801432182A1896E
:1013B0004EF6F3100140A8882A8910436A890A432F
:1013C0001043A081A08A4FF6FF410840A98901433C
:1013D000A1826846FFF76CFC1948844201D103984A
:1013E00000E00298A189090400EBC00101EB0010A4
:1013F000296801D5490000E08900B0FBF1F06422C2
:10140000B0FBF2F109010B096FF018056B4300EB1B
:101410008300A3891D044FF0320306D503EBC000FF
:10142000B0FBF2F000F0070005E003EB0010B0FBAA
:10143000F2F000F00F000843208105B030BD00003D
:1014400000380140C1F3080181807047FEE70000C9
:101450000FB4054B10B503A9044A029800F0A4F993
:1014600010BC5DF814FB0000CD28000830030020FC
:101470000FB4084B10B504A902AA039800F094F920
:10148000044602A9002000F026FD204610BC5DF8AD
:1014900014FB0000D71E000802E008C8121F08C194
:1014A000002AFAD170477047002001E001C1121FE5
:1014B000002AFBD1704738B504466D208DF8000036
:1014C0006B46012240F606012E2001F071F941F62B
:1014D000060114B140F2076201E041F207622E20DA
:1014E00001F04AF938BD38B504466B4602220021A6
:1014F000362000F0D9FF0E2C2CD2DFE804F00F07C5
:10150000152B2B2B2B1D392B2B44494E00208DF8EE
:1015100000009DF8010000F0FE0019E09DF80000B9
:1015200000F0FC00401C04E09DF8000000F0FC000E
:10153000801C8DF800000DE09DF8000000F0B30065
:1015400040F048008DF800009DF8010040F0800058
:101550008DF801006B4601220021362001F028F9A8
:101560000122114636200DF1010301F021F938BDA9
:101570009DF8000000F0B3008DF800009DF8010018
:1015800000F07F00E4E79DF8010040F00200DFE793
:101590009DF8010000F0FD00DAE79DF8000000F082
:1015A000CF0040F02000C4E708B503208DF801000B
:1015B00001208DF800006B4602220021362001F048
:1015C000F7F84FF4004206212D2001F0D5F8012054
:1015D00000F0E4FC0120FFF786FF08BD08B5010A12
:1015E0008DF801108DF800006B46022204212D2099
:1015F00001F0DEF803208DF800006B460122062181
:101600002D2001F0D5F800208DF800006B46012256
:1016100006212D2001F0CCF80A212D2000F02DFF0D
:1016200008BD00002DE9FF5F82B00021DDE9043034
:10163000020DDDF840B0034318D044F61050A2F27A
:10164000FF3242431514119801281FD0A5EB0B005F
:10165000401C5FEA000A4FF000064E4FDFF8389159
:10166000B046504615D5CAF1000413E01198012484
:101670004AA3012801D16FEA0B010298119AC0E92F
:101680000031C0E9024206B0BDE8F09FCBF1000096
:10169000DFE704460021404A491842EB0450CDE9F7
:1016A000001012E0E00707D032463B46404649466C
:1016B000FEF74CFE8046894632463B4610461946A8
:1016C000FEF744FE06460F466410002CEAD1DDE921
:1016D0000401DDE90023BAF1000F06DAFEF736FE59
:1016E00042464B46FEF732FE05E0FEF7A1FE4246BB
:1016F0004B46FEF79DFE04460E460022284BFEF7A1
:1017000023FF03D84FF0FF30014607E00022254BAE
:1017100020463146FEF773FDFFF73AF8102409E042
:10172000002C0ADB0A220023FEF73CFF039B303229
:101730001A55641E50EA0102F2D1641C039AC4F1E6
:1017400011031444119A012A03D0012208430DD138
:101750000AE0084304D000204FF0110B119072E70B
:10176000A3EB0B056D1E0DE05B4504DD4FF00002A1
:1017700005F1010504E003DA4FF00002A5F10105CF
:10178000002AECD002981199C0E90231C0E9004565
:1017900079E70000000014400000F03F3000000036
:1017A0000000F0430000E03F2DE9FF4F95B09B465D
:1017B0008946064600250FE2252877D100242746D2
:1017C000F84A0121059400E0044316F8013F203B4C
:1017D00001FA03F01042F7D130782A2811D06FF0C7
:1017E0002F033078A0F13002092A16D8059A44F068
:1017F000020402EB820203EB42021044761C0590C5
:10180000EFE759F8042B0592002A03DA504244F41A
:101810000054059044F00204761C30782E2816D12E
:1018200016F8010F44F004042A280DD06FF02F029F
:101830003078A0F13003092B09D807EB870302EBBE
:101840004303C718761CF3E759F8047B761C3078FD
:101850006C280FD006DC4C2817D068280DD06A28D9
:1018600014D104E0742810D07A280FD10DE044F48C
:1018700000140AE044F4801401E044F44014727847
:10188000824202D104F58014761C761C30786628DA
:101890000BD013DC582877D009DC002875D04528F8
:1018A000F6D04628F4D047281AD19DE118E06328E5
:1018B00035D0642879D0652812D195E1702873D08D
:1018C00008DC6728F1D069286FD06E280DD06F280A
:1018D00006D1B5E073282CD0752875D0782874D03F
:1018E0005A46179990476D1C75E1C4F302500228BF
:1018F00009D003280DD0D9F8001004280DD00D60B0
:1019000009F1040967E1D9F80010EA17C1E90052AA
:10191000F6E7D9F800100D80F2E70D70F0E719F83E
:10192000041B8DF8001000208DF80100EA4601200C
:1019300003E059F804AB4FF0FF3061074FF00001AE
:1019400002D40DE008F101018846B9420FDA804562
:10195000F8DB1AF808100029F4D108E008F10101B9
:1019600088468142FADB1AF808100029F6D105985A
:101970005B46A0EB080721463846179A00F094FA18
:10198000284400EB080507E04DE029E10DE01AF8D6
:10199000010B5A4617999047B8F10108F7D25B46F8
:1019A00021463846179A13E142E00A220092C4F316
:1019B00002524FF0000A022A08D059F804CB032A39
:1019C0004FEAEC710AD00DE029E02AE009F10701A5
:1019D00021F00702F2E802C1914609E00FFA8CFCFF
:1019E0004FEAEC71042A03D14FFA8CFC4FEAEC71F8
:1019F000002907DA0A460021DCF1000C61EB020144
:101A00002D2202E0220504D52B228DF8042001228C
:101A100003E0E20701D02022F7E7904659E00A21CF
:101A200002E010220DE010214FF0000A00910BE0BF
:101A300010224FF0000A44F004040827009203E04B
:101A400008224FF0000A0092C4F30252022A05D085
:101A500059F804CB0021032A08D009E009F1070155
:101A600021F00702F2E802C1914605E01FFA8CFC62
:101A7000042A01D10CF0FF0C4FF00008220728D5F2
:101A8000702806D0009B83F0100353EA0A0305D0A8
:101A90000EE040228DF80420012208E05CEA0102F9
:101AA00006D030228DF804208DF8050002229046E1
:101AB000009B83F0080353EA0A030AD15CEA01029F
:101AC00001D1620705D530228DF804204FF00108BE
:101AD0007F1E582804D034A003900EA802900DE079
:101AE00036A0F9E753466046009AFEF75BFD844650
:101AF0000398825C0298401E029002705CEA01002A
:101B0000F0D1029806A9081A00F1200A600702D550
:101B100024F4803400E00127574502DDA7EB0A00DA
:101B200000E0002000EB0A01009005984144401AB3
:101B30000590E00306D45B462146179A059800F00D
:101B4000B3F90544002706E001A85A46C05D17997D
:101B500090476D1C7F1C4745F6DBE0030CD55B46C8
:101B60002146179A059800F09FF9054404E03020BB
:101B70005A46179990476D1C0099481E00900029FD
:101B8000F5DC08E0029802995A460078491C029157
:101B9000179990476D1CBAF10001AAF1010AF1DC16
:101BA00065E1000009280100303132333435363721
:101BB0003839616263646566000000003031323399
:101BC0003435363738394142434445460000000039
:101BD00000F058F90544761C307800287FF4ECAD0D
:101BE00019B02846BDE8F08F620700D4062709F136
:101BF000070222F0070CFCE80223E14603F000484C
:101C00005FEA080C02D00FF2702C0DE05FEA045C72
:101C100002D50FF2682C07E05FEAC47C02D00FF215
:101C2000602C01E0AFF2700C4FF0FF3823F000435E
:101C3000CDF850C065280CD006DC452809D04628D0
:101C40001DD047283DD13DE0662818D067287ED1B9
:101C500038E00021112F01DB112000E0781CCDE9D4
:101C6000000106A90EA8FFF7DDFCDDE90F010E9AC1
:101C700003910021009207F1010A04914DE04FF019
:101C800000400097CDE9011006A90EA8FFF7CAFC95
:101C9000DDE90F0203920E9B11990022DDF80CA0E2
:101CA0000093049211B9791C00EB010AB7EB0A000A
:101CB00004D4C0F1FF3007F1010A0490AAEB070039
:101CC000019044E0012F00DA01270021112F01DDEE
:101CD000112000E03846CDE9000106A90EA8FFF763
:101CE000A1FCDDE90F010E9A0391002104910092FD
:101CF000BA4621070CD40399514500DA8A46BAF155
:101D0000010F05DD009AAAF10101515C302908D0CC
:101D1000B84202DA10F1040F06DA0121CDE9011010
:101D200015E0AAF10101E9E7002805DC0499014466
:101D30000491AAEB000102E0411C514500DD8A46F6
:101D40000499401A401C01904FF000400290200777
:101D500004D40198504501DBCDF8048000208DF8B3
:101D60004F0002980DF14F07B0F1004F25D02B2006
:101D70000E9002984FF0020800280CDA40420290C0
:101D80002D200E9007E00A210298FEF7F5FB303176
:101D9000029007F8011DB8F10001A8F10108F2DC7A
:101DA00002980028EFD1791E0E980870307800F064
:101DB000200040F0450007F8020D12A8C01B00F1FA
:101DC00007081498007800B1012000EB0A0101987F
:101DD00001EBE07105984144401A401E0590E00374
:101DE00006D45B462146179A059800F05DF8054435
:101DF0001498007818B15A46179990476D1CE00363
:101E000024D55B462146179A059800F04DF8054405
:101E10001CE00498002807DBDDE90301884203DDAC
:101E20000098405C179901E0179930205A46904776
:101E3000049805F10105401C04900198401E019092
:101E400004D12E205A46179990476D1CBAF1000113
:101E5000AAF1010ADDDC05E017F8010B5A461799D3
:101E600090476D1CB8F10001A8F10108F4DC5B4655
:101E70002146179A0598ABE62D0000002B000000C4
:101E8000200000002DE9F041044600251E461746BB
:101E9000880404D405E039462020B0476D1C641E38
:101EA000F9D52846BDE8F0812DE9F041044600252A
:101EB0001E469046C80301D5302700E0202788043D
:101EC00004D505E041463846B0476D1C641EF9D57F
:101ED0002846BDE8F0810A68531C0B6010707047FB
:101EE0002DE9F0412C4E01236D24F37233460F2768
:101EF0005C7334467223A3730223E3732346753C59
:101F00001F74A5895D74B4462B0A8CF812300A231D
:101F100090FBF3FCB6468EF813C090FBF3FC4FEA3F
:101F20001C2C8EF814C091FBF3FC91FBF3F18EF89E
:101F300015C0B446090A8CF8161092FBF3F18CF820
:101F4000171092FBF3F13246090A117690FBF3F178
:101F500090FBF3F05176000A907610460D21C3767F
:101F60000177114610200873B570F77000221F200A
:101F700000F03DFC00211F2000F04AFC002000F092
:101F800097FB00210F2000F078FA0006F9D5E068F1
:101F9000401CE060BDE8F0817D00002010B50446E3
:101FA00000F0F8FE04EB000400F0F4FE001B002833
:101FB000FADD10BD704700207047000070B5364E46
:101FC0000025A6F10C0400BF56F82500002808DD06
:101FD00054F8251091FBF0F0294600F03FFC44F83E
:101FE00025006D1C032DEFDB94E80700FFF778FF59
:101FF0002A488168012903D100218160FEF7DDFCB8
:102000003068274D002814DD2068FEF780FA294645
:10201000FEF7B7F8FEF784FA02461F480B4621A1E7
:10202000F438FFF725FA1C4A0221F43A0020FEF7A3
:10203000B5FD7068002814DD6068FEF768FA29466F
:10204000FEF79FF8FEF76CFA024613480B4618A1FC
:10205000F438FFF70DFA104A0421F43A0020FEF795
:102060009DFDB068002816DDA068FEF750FA2946ED
:10207000FEF787F8FEF754FA024607480B460FA111
:10208000F438FFF7F5F9044ABDE87040F43A062148
:102090000020FEF783BD70BD2C0400200800002046
:1020A00000007A44616E303A25332E32666D0000AE
:1020B000616E313A25332E32666D0000616E323A20
:1020C00025332E32666D00002DE9F84F0446057861
:1020D000407978494FF00009C84631F810706178AE
:1020E0007548491ECEB20163042D75D0072D73D0FB
:1020F00000218A46217801736F49E2798969002AB3
:102100006CD021F480018161217A4173217A4FF4EE
:102110004033826903EA01410A4383468261002118
:10212000042000F036FB3A4642F604012E2000F06F
:1021300023FB3046FFF7BFF9604F61490522785D08
:1021400000EB8000431807212B2000F031FB5D4994
:10215000012201EB0A030B21282000F029FB785D06
:10216000594951F820200C21282000F012FBE07979
:10217000564901EB8000A17930F811200221272077
:1021800000F0FAFA5248042130F81620272000F017
:10219000F3FAE07938B3A07804282AD028208DF803
:1021A000000020220621272000F0E6FA6B460122DB
:1021B0002621272000F0FCFA4648E17800EB0610C3
:1021C00050F821200821272000F0E3FAB4F8090094
:1021D000A0B117E000E001E001218AE741F48001AD
:1021E000FF08816190E764220621272000F0C4FAED
:1021F000E2E710208DF800000246D3E741F24100EB
:10220000A4F80900B4F809202021272000F0B4FA2E
:10221000314F0C2123203A6800F0BBFA07EB46004F
:1022200004218288232000F0A7FAA07958B1E07930
:102230002A49012243180021212000F0B9FA4FF069
:1022400003094FF0010805F00F00290740EA11606B
:1022500061784FF4402202EA81410843920002EA89
:10226000095108434FF4003202EA484108432179FA
:102270004FF0F86202EA81510843617940EAC16295
:1022800000211F2000F085FAA07861784FF4004308
:1022900008430204CBF81020E179082043EA4131D9
:1022A0000A430021CBF8102000F073FA0020BDE8AB
:1022B000F88F00004036000838040020C4350008BC
:1022C000E435000802360008CC3500081036000856
:1022D0001C36000820360008043600080C360008BA
:1022E00010B504460421362000F0C7F814B140F4BC
:1022F000006201E020F400620421BDE810403620B5
:1023000000F047BA38B540208DF8000000210E20BB
:1023100000F0B3F80446FFF74EFE054600221146D2
:102320000E2000F036FA6B46012200210D2000F04D
:102330003FFA0A4A00210F2000F02BFA00F002FABF
:10234000224600210E2000F024FA2846FFF732FE34
:102350000349002081F82C0038BD0000F8FF272435
:10236000380400207CB50546374C04208DF8000069
:1023700000216175216384F8251084F82C10A18355
:102380006163A16300F08CF83049206088420BD073
:102390002F4C02212046FEF70BFB04212046FEF7BE
:1023A00007FB4FF0FF307CBD0020FFF79CF86B4629
:1023B00001220021242000F0FBF91E20FFF70EF976
:1023C00086B2300AA0730420FFF708F910F0FF0F5F
:1023D0000CD002208DF8040001AB012212212D2027
:1023E00000F0E6F9A08B40F48050A0830620FFF7B0
:1023F000F5F860600720FFF7F1F8A06016F01F0005
:10240000207501D110202075C0B200F00FFAE80746
:1024100006D0FFF7C9F8A08B40F40060A08309E064
:102420000521362000F016F820F400720521362030
:1024300000F0A2F90120FFF756F80021042000F077
:102440001CF8A06100207CBD380400203001CADEE9
:102450000008014038B54FF6FF7489B280B26B4670
:10246000022200F021F830B99DF800009DF801101B
:1024700000EB012084B2204638BD38B54FF0FF3460
:1024800089B280B26B46042200F00EF830B9032105
:102490006846425C491E02EB0424FAD5204638BD4A
:1024A00000210846FFF7E9BF08B551B140F04000F0
:1024B0008DF80000C8B27F2907D88DF801000220EE
:1024C0000BE08DF80000012007E040F080008DF85F
:1024D0000100C8098DF802000320694600F060FC85
:1024E00008BD30B414460A462146034630BC1120CC
:1024F000FFF7DABF0346052200211520FFF7D4BFFE
:102500000346052200211720FFF7CEBF38B5054648
:1025100000208DF8000000F015F94FF48074224679
:102520000DB14FF4407200210D2000F025F99DB14E
:102530006B46012203210F20FFF7B6FF9DF8000034
:10254000000709D5FFF7DEFE224600210D2000F02E
:1025500013F94FF0FF3038BD002038BD024601218D
:102560000A2000F016B938B50446C0076B464FF094
:1025700002024FF000014FF026002DD0FFF794FF2C
:102580009DF80100012220F03C0040F014008DF87D
:102590000100114626200DF1010300F009F96B46F8
:1025A000012202213620FFF77FFF9DF800006B46D5
:1025B00040F084008DF8000001220221362000F056
:1025C000F7F810208DF8000001208DF8010002229C
:1025D00028216B4636200BE0FFF766FF9DF80100CF
:1025E0006B4620F014008DF8010002220021262005
:1025F00000F0DEF8A00711D50F208DF800006B4623
:1026000001222A21362000F0D3F800208DF80000A6
:102610006B4601222A21362000F0CAF838BD10B5D9
:10262000044600211A20FFF728FFC4F313026FF3BA
:10263000130002430021BDE810401A2000F0A9B8A1
:10264000024641F604012E2000F096B838B5054642
:102650006B46012203210420FFF726FF104C75B1C1
:102660002A4600210C2000F087F89DF8000040F079
:1026700010008DF80000A06940F0805008E09DF83F
:10268000000020F010008DF80000A06920F08050BC
:10269000A0616B4601220321042000F089F838BDB7
:1026A0003804002002460021182000F065B8000020
:1026B000F8B500240546224F26468DF800408007D5
:1026C0000BD580208DF800006B46012200210D20E3
:1026D00000F06EF8012087F82C00E8079DF8000054
:1026E00021D040F006008DF800006B460122002149
:1026F0000D2000F05DF803210F20FFF7ABFE10F472
:10270000816F1AD040208DF800006B460122002115
:102710000D2000F04DF80020FFF7E2FD87F82C6057
:102720004FF0FF3409E040F002008DF800006B46E6
:10273000012200210D2000F03BF82046F8BD0000EA
:10274000380400201CB56B46012203210F20FFF73F
:10275000ABFE9DF8000000F0800100F04000B1EBFE
:10276000400F08D001208DF80400024601AB032180
:102770000D2000F01DF81CBD08B589B28DF80020B1
:10278000120A8DF8012080B26B46022200F010F888
:1027900008BD38B500236C46E254120A5B1C042BBA
:1027A000FADB89B280B22346042200F001F838BD7A
:1027B00008B551B140F0C0008DF80000C8B27F29C3
:1027C00009D88DF8010002200DE040F080008DF85E
:1027D0000000012007E040F080008DF80100C809EA
:1027E0008DF802000320694600F06EFB08BD10B5AD
:1027F00014460244B2F5806F02D94FF0FF3010BD8D
:102800000B46821E21460920FFF7D2FF002010BD93
:10281000054A10B5126940EA8150024300210820A0
:10282000FFF7B7FF002010BD3804002038B504467C
:102830006B4601220E212B20FFF736FE9DF800008B
:1028400004F01F0120F01F0001438DF800106B46BB
:1028500001220E212B20FFF7ABFF38BDF0B500227F
:10286000134D052701EB8104134605EB8404002872
:1028700014DD643555F8216044F82600761C45F8CF
:102880002160052E02D1002045F8210054F82200D5
:10289000521CD2B20344052AF8D306E054F82200B1
:1028A000521CD2B20344052AF8D393FBF7F0F0BDD3
:1028B0004803002010B500214254120A42EA036284
:1028C0001B0A491C0429F7DB10BD000070B5094C38
:1028D000054640212046FEF74BFDE9B22046FEF7B3
:1028E000B1FD40212046FEF750FD0028F9D02846D2
:1028F00070BD0000003801400100094808D00129DE
:1029000008D0022908D0032908D10E21FEF750B8BB
:102910000221FBE70421F9E70821F7E770470000EF
:10292000000801400100094808D0012908D0022907
:1029300008D0032908D10E21FEF73CB80221FBE79D
:102940000421F9E70821F7E770470000000801407B
:1029500008B500252C4600F0FDF9D3A0FEF778FD60
:1029600000F05CFA00F081FA0120FFF7FBFC401C4C
:102970004ED000F077FAD148FFF7A6FB0120FFF711
:10298000F2FD48F2B600FFF75BFE0020FFF78AFE7B
:102990000021CBA20846FEF701F9CCA0FEF758FDB6
:1029A000D048CF4ACD49C0E90012D04ACE49C0E94B
:1029B00002120021C0E90411CD4AC0E90612C0E9A3
:1029C0000811C0E90A11C0E90C11C0E90E11C0E9F3
:1029D00010119620FFF723FE40F68C20FFF736FEFD
:1029E0000021C4A20846FEF7D9F8C6A2062100209D
:1029F000FEF7D4F8C7A202210020FEF7CFF8FEF7B9
:102A0000D7FAAE4EDFF81CB3DFF81C83283E18E07F
:102A1000C6A0FEF71DFD0021CAA20846FEF7BEF8BB
:102A20000020FEF7B7FA6420FFF7B8FA0020FEF79F
:102A3000A5FA6420FFF7B2FAF2E700BFBAF1000F7F
:102A40000CD002215F465846FDF7B2FF04213846FC
:102A5000FDF7AEFFFEF762FB4FF0000AFEF706FB44
:102A600000285AD1DFF85492012509F1790900278D
:102A7000924989F8027089F80350002279310D20BB
:102A8000FFF7B5FE00210D20FFF7C2FE0220FFF781
:102A90000FFE00210F20FFF7F0FC10EA080F706016
:102AA000F7D0B08840042AD54FF4814200210F208E
:102AB000FFF76FFE00211020FFF7DFFC00F07F0121
:102AC000182904DC874800221838FFF70AFD8548DA
:102AD00018388770C178A94216D100917749C7701C
:102AE0000A229331FDF740FB70B9744800992738EA
:102AF0000122425404215846FDF75CFF04E0944A49
:102B000000210F20FFF745FE6D1CEDB2022DAFD363
:102B100001256D1CEDB2022DFBD3ECBBFEF7A6FA2E
:102B200000287CD0654F4FF00009273F012587F82A
:102B30000090785D012873D19620FFF770FD40F674
:102B40008C20FFF783FD5D4800228630014680F827
:102B50000290C5700D20FFF74AFE00210D20FFF7FF
:102B600057FE0220FFF7A4FD00210F20FFF785FC90
:102B700010EA080F7060F7D0B088400468D50221D1
:102B80005846FDF717FF4FF4814200210F20FFF751
:102B900000FE0021102000E023E0FFF76EFC00F0B3
:102BA0007F01182904DC4F4800221838FFF799FCF0
:102BB0004C484946183880F80290C278AA424ED153
:102BC000C17008215846FDF7F5FE3C4945480A22E8
:102BD000A0311838FDF7C8FA10BB641C14F0FF04CC
:102BE0005BD043F2BC40FFF731FD0020FFF78EFCC5
:102BF000474600210F20FFF740FC38427060F8D0B4
:102C0000B08840043DD54FF4804200210F20FFF7EB
:102C1000C0FD00211020FFF730FC40B201E03CE095
:102C20001DE0B0F5806F05DC81B22E480022183817
:102C3000FFF757FC2B48002718382049877090F879
:102C40000390C7700A226C31FDF78EFA68B124E058
:102C500007F805903E4A00210F20FFF79AFD6D1CF2
:102C6000EDB2022DFFF465AF17E01449273911F8D2
:102C70000900012811D101F8097074B1641EE4B291
:102C80000BE02CB10D48641E00212738E4B24155F9
:102C90002F4A00210F20FFF77CFDFEF7E7F90028FF
:102CA0007FF4CCAE0024CCE668656C6C6F20647752
:102CB0006D31303030210D0A00000000300000205E
:102CC000494E49542050415353000000696E6974C5
:102CD0002070617373210D0A00000000B81E85EB9F
:102CE00051B8BE3FD8030020C3F5285C8FC2D53F42
:102CF0000000D03F2020203531555742204E6F64D0
:102D00006500000020207777772E35317577622EA9
:102D1000636E00002020204D415354455220544101
:102D2000472000000008014000D0272464776D315F
:102D300030303020696E6974206661696C210D0A3B
:102D400000000000494E4954204641494C00000013
:102D50000090272410B501217D20FDF791FF01216E
:102D60000B48FDF7F9FD01210803FDF789FFFDF789
:102D700067FDFEF781F9FDF7FFFFFDF785FEFDF723
:102D800064FE00F075F8BDE81040FDF734BE0000A9
:102D90000002300001480068704700000000002079
:102DA0002DE9F05F1D4616468A4607460024FFF7C8
:102DB00002F918494FF010098346C1F80090DFF876
:102DC00058800DE01AF80410A8F80C1001214046B4
:102DD000FEF754F80028F9D0B8F80C002870641CED
:102DE000BC42EFDB00200246414606E08A810B89A7
:102DF000DB07FCD08B892B54401CB042F6D305492D
:102E0000091FC1F800905846FFF7D4F80020BDE82C
:102E1000F09F00001408014000300140F8B5102474
:102E2000ADF800400E4E8DF8034003258DF802509A
:102E300069463046FDF73EFD10213046FDF7B8FDEE
:102E4000ADF8004000208DF803008DF8025069466F
:102E50003046FDF72FFD0220FFF7A0F8F8BD000077
:102E6000000C01400820FDF773BF2020FDF770BF64
:102E70001FB54FF4E13000900020ADF80400ADF82C
:102E80000600ADF80800ADF80C000C20ADF80A0003
:102E900069460020FEF720F80748FEF7D9FA0748F0
:102EA000FEF7D6FA0648FEF7D3FA0648FEF7D0FA40
:102EB0000148FEF7CDFA1FBD7436000844370008FC
:102EC00000370008BC3600082DE9F0419846154649
:102ED0000F4606460024FFF76EF8024611481023FD
:102EE0000360114806E0395D81810189C907FCD082
:102EF0008189641CB442F6DB002107E018F8014028
:102F000084810489E407FCD08489491CA942F5D353
:102F10000448001F03601046FFF74CF80020BDE88E
:102F2000F08100001408014000300140000204005C
:102F300000040800080080000001000200400000BA
:102F40000000020004000000040000000400000073
:102F5000040000001000000080000000800000005D
:102F600080000000010000200001002000400080DF
:102F700008008000040000001000000000010000B4
:102F8000000100000001000000010000200000001E
:102F9000000100000100002000010020004000802E
:102FA000080080000000020006000600060006007F
:102FB0000300060000000D0008000D000E000F00C9
:102FC000030007000600280017002800280028003A
:102FD00009001700000000000000000000000000D1
:102FE00000000000000000F80000000000000033B6
:102FF0003000000000100C06100C0600000000005D
:103000000000000040C07840C0784000043F040445
:103010003F040400007088FC08300000001820FF06
:10302000211E0000F008F000E018000000211C0341
:103030001E211E0000F00888700000001E212324BD
:103040001927211010160E000000000000000000DB
:1030500000000000000000E018040200000000076B
:103060001820400000020418E00000000040201872
:1030700007000000404080F0804040000202010F45
:1030800001020200000000F0000000000101011F29
:1030900001010100000000000000000080B070008D
:1030A000000000000000000000000000000101011D
:1030B00001010101000000000000000000303000AC
:1030C0000000000000000000806018040060180686
:1030D0000100000000E010080810E000000F1020C0
:1030E00020100F00001010F8000000000020203F0A
:1030F0002020000000700808088870000030282494
:103100002221300000300888884830000018202034
:1031100020110E000000C02010F800000007042459
:10312000243F240000F8088888080800001921209E
:1031300020110E0000E0108888180000000F1120F8
:1031400020110E0000380808C83808000000003FB1
:10315000000000000070880808887000001C222110
:1031600021221C0000E010080810E00000003122BD
:1031700022110F00000000C0C0000000000000305D
:1031800030000000000000800000000000008060AF
:103190000000000000008040201008000001020430
:1031A0000810200040404040404040000404040417
:1031B00004040400000810204080000000201008D3
:1031C00004020100007048080808F0000000003008
:1031D00036010000C030C828E810E0000718272496
:1031E00023140B000000C038E0000000203C230244
:1031F0000227382008F8888888700000203F2020A7
:1032000020110E00C03008080808380007182020D8
:103210002010080008F808080810E000203F2020CF
:1032200020100F0008F88888E8081000203F2020B0
:103230002320180008F88888E8081000203F2000A4
:1032400003000000C03008080838000007182020DC
:10325000221E020008F808000008F808203F21019B
:1032600001213F20000808F8080800000020203F46
:103270002020000000000808F8080800C0808080B6
:103280007F00000008F888C028180800203F2001AF
:103290002638200008F8080000000000203F202009
:1032A0002020300008F8F800F8F80800203F003F20
:1032B000003F200008F830C00008F808203F200038
:1032C00007183F00E01008080810E0000F10202049
:1032D00020100F0008F808080808F000203F21011E
:1032E00001010000E01008080810E0000F18242475
:1032F00038504F0008F8888888887000203F2000E8
:10330000030C30200070880808083800003820219D
:1033100021221C00180808F8080818000000203FA7
:103320002000000008F808000008F808001F20200E
:1033300020201F000878880000C8380800000738DF
:103340000E010000F80800F80008F800033C070030
:10335000073C0300081868808068180820302C0398
:10336000032C30200838C800C83808000000203F6F
:103370002000000010080808C8380800203826215E
:1033800020201800000000FE020202000000007F62
:1033900040404000000C30C0000000000000000170
:1033A0000638C00000020202FE000000004040405B
:1033B0007F00000000000402020204000000000080
:1033C00000000000000000000000000080808080FD
:1033D00080808080000202040000000000000000E5
:1033E000000000000000808080800000001924227E
:1033F00022223F2008F8008080000000003F1120BA
:1034000020110E000000008080800000000E1120BE
:1034100020201100000000808088F800000E11209C
:1034200020103F200000808080800000001F2222AA
:1034300022221300008080F0888888180020203F16
:10344000202000000000808080808000006B949429
:103450009493600008F8008080800000203F2100E5
:1034600000203F2000809898000000000020203FAE
:1034700020200000000000809898000000C080809C
:10348000807F000008F8000080808000203F240238
:103490002D302000000808F8000000000020203F28
:1034A000202000008080808080808000203F2000DD
:1034B0003F20003F8080008080800000203F21006E
:1034C00000203F200000808080800000001F20201E
:1034D00020201F00808000808000000080FFA1204D
:1034E00020110E000000008080808000000E11205E
:1034F00020A0FF80808080008080800020203F21ED
:10350000200001000000808080808000003324249F
:1035100024241900008080E0808000000000001F4B
:10352000202000008080000000808000001F2020FC
:1035300020103F20808080000080808000010E30BD
:103540000806010080800080008080800F300C031E
:103550000C300F0000808000808080000020312E21
:103560000E312000808080000080808080818E70FD
:103570001806010000808080808080000021302CAF
:103580002221300000000000807C020200000000C8
:10359000003F404000000000FF000000000000006D
:1035A000FF0000000002027C800000000040403F5D
:1035B00000000000000601010202040400000000F7
:1035C000000000000000010203040005405C000050
:1035D000A05C0400C06C0800805C0400E03F1E009A
:1035E000E07D1E00070400091E080540082609109A
:1035F00040085608054008261D040008BE1D0400AA
:1036000008BED8BC07A9022570889B884010080016
:103610000A001600010006000100020087008D006C
:103620002D001A3152001A339A001A351D011A372B
:103630006B003B31BE003B335E013B3596023B37AE
:10364000000099599959EB518F421E45142E008064
:10365000EB51F5283333E13A703DE13AC235852B21
:10366000C2353333C235C235AE47E13A5138A330A3
:10367000513800002F2A2A2A2A2A2A2A2A2A2A2AC4
:103680002A2A2A2A2A2A2A2A2A2A2A2A2A2A2A2A9A
:103690002A2A2A2A2A2A2A2A2A2A2A2A2A2A2A2A8A
:1036A0002A2A2A2A2A2A2A2A2A2A2A2A2A2A2A2A7A
:1036B0002A2A2A2A2A2A2F0A000000002F2A2A2A28
:1036C0002A2A2A2A2A2A2A2A2A2A2A2A2A2A2A2A5A
:1036D0002A2A2A2A464D2056657273696F6E205633
:1036E000332E312A2A2A2A2A2A2A2A2A2A2A2A2A26
:1036F0002A2A2A2A2A2A2A2A2A2A2A2A2A2F0A006F
:103700002F2A2A2A2A2A2A2A2A2A2A2A2A2A2A2A14
:103710002A2A2A2A2A2A2A2A62706865726F2E6348
:103720006F6D2E636E2A2A2A2A2A2A2A2A2A2A2AF0
:103730002A2A2A2A2A2A2A2A2A2A2A2A2A2A2A2FE4
:103740000A0000002F2A2A2A2A2A2A2A2A4D6F72C2
:103750006520496E666F726D6174696F6E20506C82
:1037600065617365205669736974204F75722057BF
:103770006562736974652A2A2A2A2A2A2A2A2A2A29
:103780002A2A2A2F0A000000A8370008000000207B
:1037900034030000E4070008F03800083403002078
:1037A00044070000A81400080110021F011F0202B4
:1037B0000802090926252104418857DE574156454C
:1037C000AA790F5A210CBF5645574110021BE2231C
:1037D00079180215FE791FAAE00DAAE10DAAE20DE3
:1037E000AAE30D2AE4AD3C040608D52C0203040428
:1037F00045060708097CA24A04F0691714380140FD
:10380000124412401A0808A9041A10049A1C0469E8
:1038100014DA20044A140852011BF010012AFF0593
:103820000215F01B0F04012AFF0502130F180940AF
:1038300040405F55555575041A5F0C091121080C5D
:1038400011200F094989790909090F201F112FFE3D
:1038500002424ACA4A0304134202FE000E14FF4009
:10386000504C4340404F50505C40FF1BF888012AA9
:10387000FF050215F81B1F08012A7F200B109F80EF
:10388000E23B808201000916E2A2928A8682808051
:10389000041840807F172424A4FEA3221B22CCAA54
:1038A000011415080601FF2B0104010511FF020296
:1038B000025808101010FF109008C3021108080FDA
:1038C000100444827F01808040432C10284681A050
:1038D00012AE100B104081CFA1C8A6A83FD3500F45
:1038E000D580D9F1DA12DB4020028D14A4A60000A5
:0400000508000131BD
:00000001FF
